S3150800000000000220BD6E0008C56E0008C76E000815
S31508000010C96E0008CB6E0008CD6E0008000000000F
S31508000020000000000000000000000000CF6E00087D
S31508000030D16E000800000000D36E0008D56E0008D7
S31508000040D76E0008D76E0008D76E0008D76E00086E
S31508000050D76E0008D76E0008556B0008656B000858
S31508000060756B0008856B0008956B0008556C0008D1
S315080000706D6C0008856C00089D6C0008B96C00085A
S31508000080D16C0008E96C0008D76E0008D76E000826
S3150800009000000000D76E000800000000A56B0008ED
S315080000A0D76E0008F1670008D76E0008D76E0008FB
S315080000B005680008196800082D680008D76E00084A
S315080000C000000000D76E000800000000D76E000888
S315080000D0D76E0008296A00084D6A0008716A000888
S315080000E0F96B0008D76E0008D76E0008D76E0008AF
S315080000F0096A0008D76E0008D76E0008D76E000890
S3150800010000000000D76E000841680008D76E000896
S31508000110956A0008BD6A00085568000895680008D1
S31508000120016D0008196D0008316D0008496D000859
S31508000130616D0008D76E000800000000000000008E
S31508000140D76E00080000000000000000D76E000807
S31508000150000000000000000000000000E16A00083E
S315080001600000000000000000000000000000000081
S315080001700000000000000000000000000000000071
S315080001800000000000000000096B00082D6B000845
S315080001900000000000000000000000000000000051
S315080001A00000000000000000000000000000000041
S315080001B00000000000000000000000000000000031
S315080001C00000000000000000000000000000000021
S31508000400DFF80CD007F0BEFA00480047796D0008FF
S31508000410000002207CB504466B486C4E6C490460AB
S31508000420306840F0010030607068084069497060C3
S315080004303068084068493060306820F480203060B1
S31508000440706820F4430070603068084030604FF4EC
S315080004501F00B0606148016821F018010160016859
S3150800046041F001010160416801F003010229FAD156
S31508000470002001900090316841F48031316058497C
S315080004808C4214D3316B0091009941F08051009150
S315080004900099316353490A680092009A22F440424F
S315080004A00092009A42F440420092009A0A60009034
S315080004B0306800F4003001900098013000900198EF
S315080004C018B90098B0F5706FF2D13068800302D47D
S315080004D00020019009E0012001904FF4FA60009095
S315080004E00098411E00280091FAD10198012829D1C7
S315080004F03D483E4A3F4D016841F0100101600168E0
S3150800050021F007010160611EB1FBF2F2036802F0F7
S3150800051007021A430260364A7068914288BF40F063
S3150800052080007060AC420ED1706820F003007060E5
S31508000530706840F001007060706800F00C000428D4
S31508000540FAD13CE0FEE7B06C294620F00300B0641F
S31508000550B06C40F00100B064306B40F080503063FE
S31508000560204600F09DFA00902349B06C08406FF0D1
S31508000570FF01B0640098B5FBF0F001EB0020B16C08
S3150800058008431E49B0640098B4FBF0F001EB004044
S31508000590B16C0843B064306840F0807030603068F1
S315080005A08001FCD5706820F003007060706840F028
S315080005B002007060706800F00C000828FAD1BDE8E7
S315080005C07C4000F0A1BE00BFDC0000200010024005
S315080005D00CC0FFF8FFFFF6FEFFFF8F00006001402A
S315080005E001D8B805007000400020024000366E01B0
S315080005F0FF0D270700127A00FFF880FF0000FFFFB3
S3150800060010B50446C1B2002004F03CFB204610BDDC
S315080006100148012101707047E600002001480021C9
S3150800062001707047E60000202DE9F04FD3B010B1F5
S3150800063053B0BDE8F08F804800780028F8D0DFF87E
S31508000640FC8198F80000012800D1FEE70120144635
S315080006500D4688F8000000F01BFEA81C4FF0FF3A74
S315080006604FF0000B11AE01AF00902846ADF84AB125
S31508000670ADF848B1ADF846B1ADF844B106F06AFC3C
S31508000680ADF84601B8F8080010B1D8F81800804748
S3150800069098F80100002800F0B280B8F80800002891
S315080006A000F09F80D8F814300020002164A29847F3
S315080006B0284606F04FFCADF8460198F80200B8F84F
S315080006C00C10B1FBF0F02946ADF84401009811F87A
S315080006D0013B02460130002BF9D1ADF848B110E0D4
S315080006E012F8020C5C2801D02F2804D1BDF8480165
S315080006F00130ADF84801BDF84601013A0138ADF8B8
S315080007004601BDF84801012803D8BDF94601504500
S31508000710E6DCBDF94601504505DCBDF84801013A5D
S31508000720002800F085804A49304607F04DF9ADF8B3
S315080007304AB138E0ADF848B110E0BDF84811BDF847
S315080007404A21BDF9443103FB0211715CBDF8482109
S31508000750B954BDF848110131ADF84811BDF8481132
S31508000760BDF94421914209DABDF84811BDF84A217C
S31508000770BDF9443103FB02118842DED2BDF84801B7
S315080007803A4607F800B098F80400BDF84A11D8F8B8
S3150800079014300131484381B200209847BDF84A0118
S315080007A00130ADF84A01BDF84A91304606F0D2FB51
S315080007B0BDF94411B0FBF1F101314945BAD83046CB
S315080007C028A1224607F000F998F80400BDF84A1156
S315080007D0D8F8143032460131484381B20020984790
S315080007E00DE03046802106F094FB304620A12A46CB
S315080007F0234607F0E9F8D8F8101030468847CDF8B0
S3150800080044B0CDF804B0CDF844B00DE0CDF804B04E
S3150800081003E000BF0198013001900198BBEB104F2F
S31508000820F7D01198013011901198FF28EED91CE7DE
S31508000830304608A179E700BFE6000020E80000205E
S31508000840417373657274206572726F7200000000DE
S31508000850648C000866696C653A206D646B2F257395
S31508000860000000006C696E653A20256400000000EF
S31508000870417373657274206572726F7220696E2097
S315080008802573206C696E652025642E0D0A0000000C
S3150800089000B17047054840780028FAD08C461146C2
S315080008A01A4603A0634607F07FB800BFE800002099
S315080008B04C6F67206D6573736167652066726F6D2F
S315080008C0202573206C696E65202564203A222573DD
S315080008D0222E0D0A000000004FF0FF31C180C0F83B
S315080008E0021000210180C0E902110161704700BFB2
S315080008F00188084A11814188918181799170C1796D
S31508000900117181681161C1685161012100695170D5
S3150800091090617047E8000020FEB54FF0FF30ADF853
S315080009200A00CDF806000020ADF80400CDE9040061
S315080009300848039001A8FFF7DBFF00204FF4E131D8
S3150800094040F2097240F20A7306B0BDE8804004F02E
S3150800095011BA00BF590900080146002004F0B0B9D1
S315080009604368026913441944891A9142FCD24160CA
S3150800097070478368026913441944891A9142FCD264
S315080009808160704702690021C0E90111C2607047A1
S31508000990D0E90310401A7047F8B50546C06890427A
S315080009A01DD914460E4600F073FCD5E900012A69E4
S315080009B0571A0844A74214D231463A4606F090FA26
S315080009C028463946FFF7CCFFD5E90002F119E61BA0
S315080009D01044324606F084FA2846314607E00220DB
S315080009E00DE03146224606F07BFA28462146FFF7F7
S315080009F0B7FFE868001BE86000F03EFC002001B085
S31508000A00F0BD2DE9F84391460F4604461268D0E931
S31508000A1003109846411A8A4205D9C9F800100126DA
S31508000A200A46206900E00026A168451AAA420CD9A0
S31508000A308FB120682A460144384606F051FAD9F89B
S31508000A40001078194A1B216803E027B12068014481
S31508000A50384606F045FAB8F1000F0DD100F018FC3B
S31508000A60D9F800102046FFF784FFD9F80000E1689E
S31508000A700844E06000F000FC002E18BF032630464C
S31508000A8001B0BDE8F08300290FBF0120034600200E
S31508000A90C3E900101CBFC3E902021A6170470000CF
S31508000AA0884208BF704788BF401A0A1A88BF11468D
S31508000AB0F6E781B000900098411E00280091FAD10F
S31508000AC001B0704701782B2905D02D2904D10130B2
S31508000AD04FF0010C02E001304FF0000C002105E058
S31508000AE001EB8101013003EB410130390378A3F1B1
S31508000AF03002092AF4D9BCF1000F18BF494208464A
S31508000B007047B1F1FF3F03DD31B9302101707047FD
S31508000B102D22494200F8012B1FB500224FF00A0C7E
S31508000B20EE460DE091FBFCF303EB8304A1EB4401D5
S31508000B30002900D54942D4B201320EF804101946EC
S31508000B400029EFD1AEF10101D2B204B0BDE81040E0
S31508000B50002A08BF70478B5C013A303300F8013B26
S31508000B60F6E700210278A2F13003092B84BF084674
S31508000B70704701EB8101013002EB41013039F1E7A1
S31508000B8009B31FB500224FF00A0CEE460AE0B1FB86
S31508000B90FCF303EB8304A1EB4401D4B201320EF853
S31508000BA0041019460029F2D1AEF10101D2B204B0FF
S31508000BB0BDE8104004E08B5C013A303300F8013B95
S31508000BC0002AF8D170473021017070472DE9F84F97
S31508000BD0044600782B2805D02D2804D101344FF07F
S31508000BE0010802E001344FF000082E4E4FF00009CC
S31508000BF010E0392F42D84846314606F017FA05461E
S31508000C00A7F1300006F0A2FC0146284606F0B6F920
S31508000C10814601342778302FEBD22E2F2ED1CDF8EE
S31508000C2000804FF07E5B4FF00008012617E0A5F123
S31508000C303007092F1AD81B4940468A4606F0F6F9A6
S31508000C400546384606F082FC0146284606F096F91F
S31508000C5080465846514606F0E9F98346013610495A
S31508000C60A55D584606F0F6FB0028E0D040465946F2
S31508000C7006F00EFADDF80080014600E0002148463D
S31508000C8006F07CF904464FF00040214606F0C8F904
S31508000C90B8F1000F08BF204601B0BDE8F08F00BFCD
S31508000CA000247449000020412DE9F0438FB08046A6
S31508000CB00F4608460021914606F0CCFB0546384605
S31508000CC006F070FC06461DB92D2008F8010B0CE04D
S31508000CD03846002106F0DAFB38B1302088F80200E1
S31508000CE042F63060A8F8000060E0304606F02EFCB8
S31508000CF00146384606F094F92E4F4D4603E039462C
S31508000D0006F094F9013D2906F9D100250A2107AF15
S31508000D1096FBF1F2ECB2013502EB8203A6EB430334
S31508000D2047F8243006F109031646122BF0D806F0C8
S31508000D3039FC08F101010CE0EAB207EB820252F82D
S31508000D40042C002A00D552423032013D01F8012C0C
S31508000D5001312A06F0D1B9F1000F27D02E2200283A
S31508000D6001F8012C20D001AA00230A27043A0BE037
S31508000D7090FBF7F60133A9F1010906EB8605A0EB0E
S31508000D80450042F8040F30465FEA0966F0D10020B4
S31508000D9007E052F80479002F00D57F4230370F5408
S31508000DA001308342F5D101E0302008700FB0BDE86C
S31508000DB0F08300BF000020412DE9FE4F044600786D
S31508000DC02B2805D02D2804D101344FF0010802E064
S31508000DD001344FF0000840484FF0000B00268146CA
S31508000DE016E0392F5DD85846314600224B4606F0A4
S31508000DF034FA0546A7F130000E4606F0B5FB024662
S31508000E000B462846314606F081F983460E460134DC
S31508000E102778302FE5D22E2F43D12D48CDF80080E4
S31508000E204FF0010800274FF0000A029000200190B9
S31508000E3027E00299274B5046002206F035FB28BBCF
S31508000E40B9F1390F22D80198234B3946002206F00A
S31508000E5004FA0746A9F130000D4606F085FB02465E
S31508000E600B463846294606F051F90F4602991A4BA1
S31508000E7001905046002206F0F0F98246029108F1E8
S31508000E80010814F80890B9F1300FD2D20198029BE4
S31508000E903946524606F053FADDF8008002460B46FC
S31508000EA001E0002200235846314606F02FF9044691
S31508000EB00D4600204FF0004122462B4606F0C7F9A2
S31508000EC0B8F1000F04BF2046294603B0BDE8F08FED
S31508000ED00000F03F65CDCD41000024402DE9F043E8
S31508000EE095B080461E46194617461046002200232E
S31508000EF006F0DAFA04463846314606F080FB05461F
S31508000F001CB92D2008F8010B0EE0384631460022A0
S31508000F10002306F0FFFA38B1302088F8020042F6BE
S31508000F203060A8F8000066E0DDF87090284606F004
S31508000F301BFB02460B463846314606F088F92F4E0B
S31508000F404F4604E00022334606F087F9013F3A0689
S31508000F50F8D100264FF00A0C09AF95FBFCF3F2B264
S31508000F60013603EB8304A5EB440447F8224005F158
S31508000F7009021D46122AF0D806F041FB08F10101C4
S31508000F800CE0F2B207EB820252F8042C002A00D5D4
S31508000F9052423032013E01F8012C01313206F0D1BD
S31508000FA0B9F1000F27D02E22002801F8012C20D0F5
S31508000FB06A4600230A27043A0BE090FBF7F601334A
S31508000FC0A9F1010906EB8605A0EB450042F8040FD6
S31508000FD030465FEA0966F0D1002007E052F8047946
S31508000FE0002F00D57F4230370F5401308342F5D1A8
S31508000FF001E03020087015B0BDE8F08300002440F9
S3150800100082B02DE9F04F8DB005460C4616A800278C
S315080010100DF1080BCDE916230C90E4E005F8010B59
S315080010200137DFE014F9010FA0F1630115291FD874
S31508001030DFE801F0770BD82AD8D80BD8D8D8D8D873
S315080010407C80D8D894D8A1D8D8260C9801220A230F
S31508001050011D0C9159460668304600F0D3F8B6F1E2
S31508001060FF3F03DC2D210BF800100130C6B28CE0DF
S31508001070252800F09680462806D0582840F0B280E9
S315080010800C980022102379E00C98073020F007000E
S3150800109000F108010C91D0E900A95046494606F02E
S315080010A0AEFA594601220A23804600F0ABF80646F6
S315080010B0504649460022002306F0F6F90028CDF8E6
S315080010C0048002BF2D200BF8060001365FFA86F869
S315080010D05846414600F0C0F828465946424605F0AB
S315080010E0FFFE019806F040FA02460B46504649466E
S315080010F006F0ADF8424B002206F0AFF800220023B6
S315080011000646894606F006FA454400284BD130467D
S31508001110494606F074FA594601220A2300F072F885
S3150800112049E00C98011D0C91006877E70C9800229D
S31508001130082323E00C9800221023011D0C91594620
S31508001140006800F05FF85846082100F085F8DDE9E8
S315080011500201083769602860083543E00C98011DCC
S315080011600C91006803E005F8011B0130013701788E
S315080011700029F8D136E00C9800220A23011D0C91AB
S315080011805946006800F03EF806465846314600F0D3
S3150800119063F828465946324605F0A2FE37443544D8
S315080011A020E025203AE743F23000ADF80C004FF076
S315080011B03030029006204744302102E00BF8001038
S315080011C001300528FAD92E210BF800100130C6B2D5
S315080011D05846314600F040F828465946324605F04A
S315080011E07FFE37440134207825283FF41BAF0028BA
S315080011F07FF414AF38460DB0BDE8F04F02B0704723
S3150800120080842E418AB1002800D54042002290FBF6
S31508001210F3FC01320CFB1300BCF1000F00F13000A7
S3150800122001F8010B6046F2D114E010B5002201E086
S3150800123001316046B0FBF3FC302401320CFB130E7F
S31508001240BEF1090F88BF3724744498420C70EFD258
S31508001250BDE81040D0B2704742184908A2F1010C07
S3150800126007E09CF80030027801390CF8012900F8EB
S31508001270013B0029F5D170470448016819B10139C5
S31508001280016018BF704762B6704700BFE46100206E
S315080012900348016809B972B60168013101607047EF
S315080012A0E4610020002808DB00F01F010122400944
S315080012B002FA01F1014A42F82010704700E100E005
S315080012C000280CDB00F01F010122400902FA01F197
S315080012D0034A42F82010BFF34F8FBFF36F8F704752
S315080012E080E100E010B5074C00F00F03044AB0F1A6
S315080012F0FF3F2344C8BF83184801187010BD00BFBC
S3150800130000E400E014ED00E004484FF6FF0201682F
S315080013101140034A11430160704700BF0CED00E01D
S315080013200004FA0570B50C4D0446002609E0B6F52A
S31508001330FA7F84BF012070BD2846012102F0B6F865
S3150800134001364D2002F06CFC0028F0D1052021461C
S3150800135003F098FC002070BD40420F002DE9F041D3
S31508001360204E884605461AE0002404E0304601214E
S3150800137002F09CF83C464D2002F052FC20B1A00831
S31508001380671C7C28F2D93C46A0087C2826D805206C
S3150800139029461E2203F080FCA8F11E081E35B8F166
S315080013A01F0FE1D2002708E0B8087C1C7C280AD861
S315080013B03046012102F07AF827464D2002F030FC2B
S315080013C00028F1D100E02746B8087C2806D8052071
S315080013D02946424603F060FC4FF000084046BDE847
S315080013E0F08100BF40420F00B0B5054605F0B2FDDA
S315080013F0044607E090B9052029461E2203F04CFC56
S315080014001E3C1E354D2002F00BFC1F2CF2D228B9CB
S3150800141005202946224603F03FFC00242046B0BD9D
S31508001420B0B5054604480C460421FFF797FF284641
S315080014302146BDE8B04091E799000020E0B5034693
S315080014400548019101AA194600230430FFF7D9FA85
S31508001450019802B080BD00BF0401002010B5064CFB
S315080014600520214603F044FC201D21460122BDE843
S315080014701040FFF791BA00BF0401002080B5022092
S3150800148001F02EFF0D494022081D1831FFF7FBFA1F
S315080014904D2000210122092302F00CFC05204FF4FF
S315080014A0E13145F6460245F6470303F063FC05209D
S315080014B0012103F045FC002080BD00BF0401002087
S315080014C010B54FF0010C14E0013A4FF0070E0CE08E
S315080014D05FFA8EF30478AEF1010E0CFA03F323409B
S315080014E018BF4FF0FF3301F8013B1EF10103EFD19E
S315080014F00130002AE8D110BD70B50D4606491446DC
S315080015000422064603F0C8FB304629462246BDE8B3
S31508001510704003F0C1BB00BF9900002070B50646B5
S315080015201B480D4614460068411E022916D3032897
S3150800153002D0042818BF70BD17200121FFF7D2FE7C
S315080015400E200221FFF7CEFE032031462A46234607
S3150800155002F000F840F28710002110E01720012160
S31508001560FFF7C0FE0E200221FFF7BCFE032031461E
S315080015702A46234601F0EEFF40F28710012103F0C8
S3150800158017FB88200121BDE8704002F07DB900BF35
S31508001590B40100202DE9FE4F464F0093464B924674
S315080015A03A46984605F059FE444E0022334605F061
S315080015B0C6FE0290019104460D463A464346DDE9C9
S315080015C00C0105F04AFE0022334605F0B8FE8146B6
S315080015D08B46204629464A465B4605F038FE0D46A8
S315080015E00099044650463A464346BA4605F035FE43
S315080015F00022334605F0A3FE06460F46DDE90E0136
S315080016005246434605F029FE2C4B002205F097FE6C
S3150800161002460B463046394605F019FE284B8046E9
S315080016208A4620462946002205F017FE07F072F979
S3150800163004460D46DDE9011007F01EF906460F4679
S315080016404846594607F018F902460B4630463946C9
S3150800165005F003FE1A4B06460F4640465146002241
S3150800166005F0FBFD07F056F902460B4605F0F5FDB9
S3150800167002460B463046394605F0EFFD06460F464C
S315080016802046294622462B4605F0E7FD32463B46CC
S3150800169005F03CFD07F08EF906F0D8FD02460B462C
S315080016A005F034FD074B4FF0804205F0D6FD03B038
S315080016B0BDE8F08F282D4454FB2109400080664080
S315080016C00000E03FA65458412DE9F04F89B04F4F2E
S315080016D015464D4A88468146194628463B4692464F
S315080016E005F0BBFD4A4E0022334605F028FE0446A7
S315080016F00D46DDE9140152463B4605F0AEFD0022D3
S31508001700334605F01CFE22462B4605F0A0FD414C4B
S31508001710CDE90510A047CDE907104846414652468F
S315080017203B46A34605F099FD0022334605F007FE21
S3150800173080468946DDE9120152463B4605F08DFD95
S315080017400022334605F0FBFDDFF8CCA004460D4623
S31508001750D047CDE9031040464946D047CDE90110A8
S31508001760204629465E46D84700908B46404649465D
S31508001770B04706460F4620462946D04702460B463E
S315080017803046394605F069FD04460D46DDE9051083
S31508001790D04702460B462046294605F05EFD04461C
S315080017A00D460298DDE900215B4605F056FD224606
S315080017B02B4605F04CFD04460D46DDE90710DDE92C
S315080017C0033205F04AFD22462B4606F087FF104BEA
S315080017D0002205F042FD0C4A0C4B05F0B0FD002234
S315080017E0002304460D4605F07AFE0C4B06462046B5
S315080017F02946002205F08AFC002E1CBF20462946F1
S3150800180009B0BDE8F08F00BF282D4454FB210940DC
S3150800181000806640158900087988000800807640AF
S315080018202DE9F04F85B0DFF848B3D2A103220BF1BA
S315080018300305284605F095FBD8B3CFA12846032211
S3150800184005F08FFB002840F090810220594600F0F1
S3150800185011FB1BF800002C2800F08781C74F0720D2
S315080018605946B8470BEB000501202946B847013809
S315080018702946C6B20DF10A00324605F055FB00218D
S315080018808155FFF71FF9BE4E594686F83C000920D8
S31508001890B847584400F01FFB05460B205946B84781
S315080018A0584400F018FB0146284605F067FB3064EB
S315080018B05BE10220594600F0DDFA1BF80000B04C47
S315080018C000214128217440F0D0800120AB4D5946B3
S315080018D020740420A8471BF80000594684F83000F5
S315080018E00620A8471BF80000594684F83100032053
S315080018F0A847584400F0DBFA80460E4605205946AC
S31508001900A84707464046314605F079FE05460BEBE3
S31508001910070000F0CCFA8246642499480F4695FBE6
S31508001920F4F54582504605F06AFE90FBF4F99448B2
S31508001930A0F81890A8B20190604305F015FE02467B
S315080019400B464046314605F082FC05F0A3FE0546E7
S3150800195005F028FE06468A481FFA89F9868209FB99
S3150800196004F005F001FE02460B465046394605F0DE
S315080019706EFC05F08FFE824605F014FE044680488C
S31508001980B6B24483304605F0E1FD0146284605F027
S3150800199047FB7C4905F04AFB05F004FE7849C882F6
S315080019A080B205F0F2FD784B002205F0C8FC05462A
S315080019B030460F4605F0E9FD744B002205F0BFFCE2
S315080019C006460198884605F0E0FD02460B46304675
S315080019D0414605F09BFB2A463B4605F097FB684ABD
S315080019E0A5B2C2E90801284605F0B0FD01465046F1
S315080019F005F016FB634905F019FB05F0D3FD6049B0
S31508001A00888380B205F0C1FD5F4B002205F097FC84
S31508001A10804628460F4605F0B8FD5C4B002205F0C7
S31508001A208EFC054648460E4605F0AFFD02460B46B7
S31508001A302846314605F06AFB4246514C3B4605F0BE
S31508001A4065FB4E4DC4E90A0107205946A847584484
S31508001A5000F041FA4E4905F0E9FA60630820594654
S31508001A60A847584400F037FAA0639BF807009BF88C
S31508001A7008109BF809209BF80A3000EB800001EB60
S31508001A8040059BF80B10A5F11000207302EB8200AD
S31508001A9001EB810103EB4000103860739BF80C00E2
S31508001AA000EB410059461038A073092000F0E2F90E
S31508001AB01BF800100BEB0003A5F10807587801EB9B
S31508001AC0810100EB4102D978A2F11000E072987802
S31508001AD000EB800001EB4000A0F11001A17219791A
S31508001AE05B792773FFB2182F01EB810103EB4101E4
S31508001AF001F5B863238138D30F3AC6B2A5F120079A
S31508001B00E27227731F271B2E1FD80125B54015F033
S31508001B10256F01D01E2718E0122E16D164271C2522
S31508001B20B3FBF7F606FB17369F074FF01C0708BFEF
S31508001B301D27002E4FF4C87608BF2F46B3FBF6F5CF
S31508001B4005FB1633002B08BF1D27D2B297420CD2CD
S31508001B500122E272A0F10F02A272D2B20D2A04D3B8
S31508001B6001F2C1511B382181A07205B0BDE8F08F82
S31508001B701C610020524D430047474100751E00086E
S31508001B806001002000401C46804F224100004E4064
S31508001B90CDCCEC3F1CB50DF10701022003F0A8F8E7
S31508001BA09DF807000F49242805D00A78242A02D16F
S31508001BB00D4A127802E00C4B00221A700A4C531C8C
S31508001BC00A288854237018BF1CBDD8B200230B54AA
S31508001BD0901C2070C2B2054805F082F90120607099
S31508001BE01CBD00BF80610020600100201C61002030
S31508001BF0F0B5A9B022AD74A11C22284605F070F9EB
S31508001C0078A0994C994E4168209176491F91817A1E
S31508001C100089ADF8840076A08DF8861041681D917C
S31508001C2073491C91817A0089ADF8780073A08DF804
S31508001C307A1041681A9171491991817A0089ADF82B
S31508001C406C0071A08DF86E10416817916E49169157
S31508001C50817A0089ADF860006EA08DF8621041683F
S31508001C6014916C491391817A0089ADF854006CA0DF
S31508001C708DF856104168119169491091817A008949
S31508001C80ADF8480069A08DF84A1041680E91674979
S31508001C900D91817A0089ADF83C0067A08DF83E1059
S31508001CA041680B9164490A91817A0089ADF8300040
S31508001CB064A08DF832104168089162490791817ACB
S31508001CC00089ADF8240062A08DF8261041680591B8
S31508001CD05F490491817A0089ADF818005FA08DF8F4
S31508001CE01A10416802915D490191817A00898DF83F
S31508001CF00E10ADF80C0020464FF4FA71B0470220DA
S31508001D004FF4E13142F22A7242F22B7303F032F8B1
S31508001D10574F022029461C22B8472046C821B047FB
S31508001D201CA902200B22B84720463221B0471FA91A
S31508001D3002200B22B84720463221B04719A90220B3
S31508001D400B22B84720463221B04716A902200B229B
S31508001D50B84720463221B04713A902200B22B847BC
S31508001D6020463221B04710A902200B22B847204648
S31508001D703221B0470DA902200B22B847204632214E
S31508001D80B0470AA902200B22B84720463221B0479D
S31508001D9007A902200B22B84720463221B04704A9DA
S31508001DA002200B22B84720463221B04701A902205B
S31508001DB00B22B84720463221B0470220012102F003
S31508001DC0BFFF29B0F0BD00BFF1D906421400000AD2
S31508001DD005006400000060EA0000D0070000C800A3
S31508001DE00000B8EDF1D906010300F00001FB100070
S31508001DF0F1D906010300F00501001A00F1D9060120
S31508001E000300F00100FB1100F1D906010300F002FE
S31508001E1000FC1300F1D906010300F00300FD1500CC
S31508001E20F1D906010300F00400FE1700F1D90601F6
S31508001E300300F00600001B00F1D906010300F007B5
S31508001E4000011D00F1D906010300F00800021F0079
S31508001E50F1D906010300F040003A8F00F1D90601D6
S31508001E600300F020001A4F0040420F00AD3400086E
S31508001E70994C0008B0B505460C4608460A2105F0F7
S31508001E805FF800280FBF0020C4F101010844C0B262
S31508001E9000220021D3B2984207D9E35C01322C2BE9
S31508001EA008BF0131CBB2AB42F4D1D0B2B0BDBFB599
S31508001EB0044601202146FFF7DDFF01382146C5B259
S31508001EC00DF106002A4605F02FF800214155FEF7C8
S31508001ED073FF04B0B0BDBFB5044601202146FFF725
S31508001EE0C9FF01382146C5B20DF106002A4605F09C
S31508001EF01BF800214155FEF75FFF05F0CBFB04B048
S31508001F00B0BD00002DE9F843DFF88C8005460020B7
S31508001F10234C08274FF0A5096E4688F800001F488D
S31508001F200088B0F50C7F08BF092717E08DF80090E8
S31508001F303146042215F827008DF8010005EB8700C5
S31508001F4040888DF80300000A8DF80200072002F089
S31508001F50A3FE2046022101F0A9FA013FB7F1FF3F8F
S31508001F60E4DC0026012598F8000040B92046012146
S31508001F7001F09CFA701C802E0646F4D907E0094841
S31508001F80417880780840B0F1FF0518BF012528463A
S31508001F9001B0BDE8F08300BFAD0100200ABA0020F9
S31508001FA040420F00AE0100202DE9F84FDFF890906F
S31508001FB08346244C254E07254FF2A512E8460127ED
S31508001FC0B9F80000B0F50C7F08BF082530E0B9F86D
S31508001FD000103BF82500B1F50C7F01D2092826D060
S31508001FE0010A8DF8030007208DF80210ADF80020CD
S31508001FF04146042202F050FE4FF0000A207850B9FC
S315080020003046012101F052FA0AF10100BAF1800FB7
S315080020108246F3D90FE000200B494FF2A512207033
S315080020200BEB8500B1F8011009BA090C4180013D96
S31508002030012DCCDA0027384601B0BDE8F08F00BF85
S315080020400ABA0020AD010020AE01002040420F0070
S315080020507CB5104801A904220190072002F01CFE55
S315080020600D4D0F4C0026287850B92046012101F065
S315080020701DFA701C812E0646F5D30020287006E04E
S31508002080002028700548B0F8010000BA000C02B01C
S3150800209070BD00BFA5F100F2AD010020AE01002021
S315080020A040420F002DE9FC4180468DF807004FF2AB
S315080020B0A50001A90422ADF804004FEA18208DF8FE
S315080020C00600072002F0E8FD0E4F104E00240125F9
S315080020D0387840B93046012101F0E8F9601C802CB7
S315080020E00446F5D90AE00020387007484178807818
S315080020F040EA0120B0EB080518BF0125284602B0C2
S31508002100BDE8F081AD010020AE01002040420F007D
S315080021102DE9FC418DF8070000274FF6A56001AEB2
S31508002120884604228DF80670ADF80400072031466B
S3150800213002F0B2FD174D0A21284601F0B7F94FEA19
S3150800214018208DF80780314604228DF806004FF6D0
S31508002150A570ADF80400072002F09EFD0E4C01267E
S31508002160207840B92846012101F0A0F9781C802F73
S315080021700746F5D90AE0002020700848417880789B
S3150800218040EA0120B0EB080618BF0126304602B027
S31508002190BDE8F08140420F00AD010020AE010020ED
S315080021A0B0B50024082508E004F1A00000210022AB
S315080021B0042301F07FFD013D0134002DF4D10720F1
S315080021C04FF4165147F681024FF4F14302F0D2FD5F
S315080021D00720012102F0B4FD1948C82101F066F96B
S315080021E0032000F0E3FF174C00252570FFF730FFAA
S315080021F015490880154825702430FFF783FE38B145
S31508002200002000F0D3FF1249002040F253120BE0E1
S315080022100E482570FFF7C8FE50B1002000F0C6FF33
S315080022200B49002040F26112FEF7FEF90120B0BD0D
S315080022300849094A45F62000FFF770F90020B0BDA5
S3150800224040420F00AD0100200ABA00200800002015
S315080022506D8C000808140440E961002070B50F4C25
S31508002260A025802620786178002818BF8025681E5A
S31508002270002982B218BFA026701E002183B2002052
S3150800228000F00EF806FB05F0454204E061880220DE
S3150800229001F0C0FF0135002DF8D170BDA80100205E
S315080022A02DE9FE4F484D8346484C0193484E9146CA
S315080022B08A464F22A0272878214600284FF0A000FA
S315080022C018BF802058454FF0000088BF0120B0474E
S315080022D06878214650224FF0800800284FF0800089
S315080022E018BFA0205045CDF808A04FF0000088BFC1
S315080022F00120B047287821465122002818BF802798
S3150800230000204F4588BF01204F46B0476878DDF862
S3150800231004902146522200284FF0000018BF4FF0C3
S31508002320A008C84588BF0120B0472A4804682A2063
S3150800233000F018FF0220002101F03AFF012C1DD8F9
S315080023400BF10200244CC1B20220A0470220002152
S31508002350A047B81CC1B20220A0472B2000F002FFFC
S3150800236002200021A04702980130C1B20220A047EE
S3150800237002200021A04709F101001CE00BF1010031
S31508002380154CC1B20220A04702200021A047781CA4
S31508002390C1B20220A0472B2000F0E4FE0220002153
S315080023A0A04702980230C1B20220A04702200021AD
S315080023B0A04709F10200C1B20220A0472C20BDE8BF
S315080023C0FE4F00F0CFBE00BFA8010020948C000885
S315080023D029060008E0000020B141000870B504464F
S315080023E00F48A025802601784078002918BF802547
S315080023F0691E002818BFA026701E8AB2002183B263
S315080024000020FFF74DFF06FB05F0454204E00220D9
S31508002410214601F0FFFE0135002DF8D170BD00BF41
S31508002420A801002005490228086005484FF0000168
S3150800243038BF012141700170704700BFE0000020DD
S31508002440A8010020024A518002490880704700BF4F
S31508002450A8010020E40000202DE9F843DFF85C908D
S3150800246006460D46A021164C9046DA22002799F812
S315080024700000002818BF80210020B142214688BFED
S315080024800120FEF7D1F899F801008021DB22002807
S3150800249018BFA021A94288BF012738462146FEF762
S315080024A0C3F83046294632462B46FFF7F9FE022086
S315080024B04146BDE8F84301F0ADBE00BFA8010020C3
S315080024C0948C00082DE9FE4F05465E48DFF87891A2
S315080024D01E465E4B92460C46EF22A0274FF0000B95
S315080024E00078494600284FF0A00018BF8020A8426F
S315080024F04FF0000088BF012098475248534B494681
S31508002500F0224FF08008407800284FF0800018BF6E
S31508002510A020A0424FF0000088BF012098474949F3
S31508002520F12208784946002818BF80270020574519
S315080025304F46DFF8189188BF0120C84741483946F9
S31508002540F2224078002818BF4FF0A008B04588BF8F
S315080025504FF0010B5846C847B4424FF0FF3B4FF0C7
S31508002560FF38DDF8309038BF4FF0010B554538BFBE
S315080025704FF00108554546D0A01B029004F0E6FF2F
S315080025800746A5EB0A00CDF800A0019004F0DEFF8F
S315080025900146384604F07CFD8246204604F0DFFFFB
S315080025A00746284604F0DBFF0146504604F03EFD88
S315080025B00146384604F034FD01990746002900D53E
S315080025C049420298002800D5404288421FDDA1B240
S315080025D0B14208BFBDE8FE8FA8B24A46FFF73CFFE6
S315080025E05C44A0B204F0BBFF394604F019FD51461D
S315080025F004F04EFD04F0D6FF0546E8E728464A46AD
S31508002600FFF72AFF5C44A1B2B142F7D117E0009E5A
S3150800261012E0A1B24A46FFF71FFF4544A8B204F0EC
S315080026209EFF0146504604F001FD0146384604F077
S31508002630A5FC04F0B7FF0446A8B2B042E9D1BDE84C
S31508002640FE8F00BFA8010020948C00082906000808
S315080026502DE9F84F264F06460D46A021DFF894903F
S3150800266090464FF4937200243878002818BF8021CA
S315080026700020B142494688BF0120FDF7D5FF78788A
S31508002680802140F22712002818BFA02100200095BB
S31508002690A942494688BF0120FDF7C6FFF11DA8F1EA
S315080026A02000B246154E1FFA81F8134901EB001BAC
S315080026B0102C08BFBDE8F88F00984246204481B226
S315080026C050460B46FFF7ECFD1BF804504FF0000987
S315080026D009E0E8070CBF79883188022001F09AFDE5
S315080026E009F101096D08B9F1070FF2D90134DFE7DD
S315080026F0A8010020948C0008A18D0008E4000020A1
S315080027002DE9F843DFF8649006460D46A021DFF868
S315080027106080144640F24712002799F80000002806
S3150800272018BF80210020B142414688BF0120FDF72D
S315080027307BFF99F8010080214FF4A472002818BF86
S31508002740A0210020A942414688BF0120FDF76CFF61
S3150800275006E006EBC700294680B2FFF779FF013786
S31508002760B8B2225C002AF4D1BDE8F883A80100209B
S31508002770948C00082DE9FE4F2A4E81468846A021F2
S31508002780294C2A4D93464FF4B0721F464FF0000A63
S315080027903078002818BF802100204945214688BF87
S315080027A00120A8477078802140F26112002818BFDE
S315080027B0A02100204145214688BF0120A847384668
S315080027C021464FF4B172002F18BF0120A8470020F8
S315080027D0214640F263120B2F38BF0120A847791C07
S315080027E068462022CDF808A0CDE900AA04F08AFBA5
S315080027F0092F0BD8012003E000EB8000013F4000C1
S315080028003906F9D19BFBF0F101FB10BB6C46594622
S315080028102046FEF776F9484641462246FFF770FFFE
S31508002820BDE8FE8FA8010020948C00082906000840
S315080028302DE9FE4F2A4E81468846A021294C2A4D6D
S3150800284093464FF4C2721F464FF0000A30780028AC
S3150800285018BF802100204945214688BF0120A84786
S315080028607078802140F28512002818BFA021002028
S315080028704145214688BF0120A847384621464FF4DE
S31508002880C372002F18BF0120A8470020214640F236
S3150800289087120B2F38BF0120A847684639462022E1
S315080028A0CDF808A0CDE900AA04F02CFB092F0BD817
S315080028B0012003E000EB8000013F40003906F9D112
S315080028C0BBFBF0F101FB10BB6C4659462046FEF7F0
S315080028D057F9484641462246FFF712FFBDE8FE8FE4
S315080028E0A8010020948C0008290600082DE9F04F5D
S315080028F085B0DFF808B181468846A021404E414C94
S31508002900924640F2AB121F4600259BF800000028AD
S3150800291018BF802100204945314688BF0120A047BD
S315080029209BF8010080214FF4D672002818BFA02119
S3150800293000204145314688BF0120A0473846314628
S3150800294040F2AD12002F18BF0120A04700203146E3
S315080029504FF4D772092F38BF0120A047DDF838B0E9
S31508002960314640F2AF125846BBF1000F18BF01209E
S31508002970A047BBF1070F38BF0125284631464FF45B
S31508002980D872A0476D461121284604F0C2FA07EB13
S315080029900B002022811C284604F0B4FA092F1FD800
S315080029A0194E4FF07E5505E02846314604F03EFBA9
S315080029B00546013F3806F7D1504604F0F3FD0646B2
S315080029C0284604F0EFFD96FBF0F004F0BFFD014643
S315080029D0284604F02BFB0146504604F021FB8246AC
S315080029E06D4651465A462846FEF75EF94846414620
S315080029F02A46FFF785FE05B0BDE8F08FA80100203E
S31508002A00948C000829060008000020412DE9F84F9B
S31508002A10304D06468946A021DFF8BC8000924FF467
S31508002A20E9721C464FF0000A2878002818BF802152
S31508002A300020B142414688BF0120FDF7F5FD6878C0
S31508002A40414640F2D312802700284FF0800018BF75
S31508002A50A02048454FF0000088BF0120FDF7E4FD9F
S31508002A60DDF82CB0DDF83080494606EB0B0001385E
S31508002A7082B209EB0800013883B23046FFF710FC32
S31508002A80C24508BFBDE8F88F0A9800994FF00009BB
S31508002A905D460AFB00F0B0FBF8F0604301EBD00698
S31508002AA012E0B9FBFBF0C10800F00700715C27FAD9
S31508002AB000F008424FF002000CBF00214FF6FF71EC
S31508002AC001F0A8FBA144013D002DEAD10AF1010A53
S31508002AD0D6E700BFA8010020948C00082DE9F84F1E
S31508002AE0324F06460D46A021DFF8C480009240F218
S31508002AF0FB121C464FF0000A3878002818BF8021C0
S31508002B000020B142414688BF0120FDF78DFD787847
S31508002B1080214FF4FE72002818BFA0210020A94288
S31508002B20414688BF0120FDF77FFDDDF82C900C9FFC
S31508002B30294606EB0900013882B2E819013883B242
S31508002B403046FFF7ADFB0D9D6FF01806BA4508BF76
S31508002B50BDE8F88F0A9800994FF0000B0AFB00F0C1
S31508002B60B0FBF7F04F4600FB041819E0BBFBF9F081
S31508002B70002D18F8000007D0A8424FF002002CBF1D
S31508002B804FF6FF71002107E006EAC00141EAD001CD
S31508002B90C00841EAC021022001F03CFBA344013FE2
S31508002BA0002FE3D10C9F0AF1010ACFE7A801002004
S31508002BB0948C00082DE9F84F2C4F06460D46A021A7
S31508002BC0DFF8AC80009240F22B221C464FF0000A38
S31508002BD03878002818BF80210020B142414688BFB6
S31508002BE00120FDF721FD787880214FF40B7200282B
S31508002BF018BFA0210020A942414688BF0120FDF741
S31508002C0013FDDDF82CB0DDF83090294606EB0B00F5
S31508002C10013882B205EB0900013883B23046FFF766
S31508002C203FFB0D9DCA4508BFBDE8F88F0A98009975
S31508002C304FF000085F460AFB00F0B0FBF9F060436E
S31508002C4001EB40060DE0B8FBFBF0002D36F810004E
S31508002C5001BA18BF080C81B2022001F0DBFAA044C1
S31508002C60013F002FEFD10AF1010ADBE7A801002096
S31508002C70948C00082DE9F84F2F4D81468B46A021EC
S31508002C80DFF8B8800093924640F252220026287850
S31508002C90002818BF802100204945414688BF0120E9
S31508002CA0FDF7C2FC6878802140F25322002818BF3D
S31508002CB0A02100205945414688BF0120FDF7B4FCF4
S31508002CC00B9CDDF83080594609EB0400013882B2C6
S31508002CD00BEB0800013883B24846FFF7E1FA07E034
S31508002CE06988022001F096FA013F002FF8D10136D3
S31508002CF046452746F9D1A8F10105DFF844800026A4
S31508002D000027BC4208BFBDE8F88FB6FBF4F10A9A63
S31508002D1007EB09003AF8111080B2694391FBF2F10A
S31508002D20B8F80020691A594489B2FFF795FB00984C
S31508002D3001370644E5E700BFA8010020948C000887
S31508002D40E40000202DE9F04F85B0374F0546894647
S31508002D50A021DFF8D8800093164640F27922002495
S31508002D603878002818BF80210020A942414688BF2C
S31508002D700120FDF759FC7878802140F27A22002854
S31508002D8018BFA02100204945414688BF0120FDF70C
S31508002D904BFC0E98494600FB0650013882B209EBF7
S31508002DA00600013883B22846FFF77AFAF508019635
S31508002DB04FF0010805FB06F00F9E03900198844228
S31508002DC004BF05B0BDE8F08F0098DDF838B002946E
S31508002DD004FB050A21E0ABF1010B4FF00009CDF821
S31508002DE010A015E007240DE09AF8001008FA04F080
S31508002DF0084202D00220314601E07988022001F01B
S31508002E0009FA013C601CEFD109F101090AF1010A2E
S31508002E10A945E7D1DDE9030A82445FEA0B60DAD106
S31508002E20029C0134CAE700BFA8010020948C000860
S31508002E30F0B589B0BF4C012040F2A32201252146F6
S31508002E40FDF7F2FB012021464FF42972FDF7ECFB52
S31508002E50B9484FF6FF7142F2665242F2645300686F
S31508002E60CDE9002102910321B0FBF1F202200021F5
S31508002E7001F0B0FCB14C6520012100221023A047C7
S31508002E806D20012100221023A0476720012100227E
S31508002E901023A0476B20012101221023A047A84E2A
S31508002EA0A84F04AC306802284FF0000038BF012054
S31508002EB0787038702046FDF70FFDA348ADF810501E
S31508002EC07978A0220890A148079041F20800ADF849
S31508002ED01600387800284FF0800018BF8022ADF819
S31508002EE01220002918BFA020ADF814002046FDF7CF
S31508002EF0FFFC974D974C984FE868416941F400519B
S31508002F00416120460A21B847E868016941F4005141
S31508002F10016120467821B847904D1120A8472046E0
S31508002F207821B847B120A8478D4C02200121A04737
S31508002F3002202C21A04702202D21A047B220A84715
S31508002F4002200121A04702202C21A04702202D2182
S31508002F50A047B320A84702200121A04702202C2120
S31508002F60A04702202D21A04702200121A0470220C8
S31508002F702C21A04702202D21A047B420A8470220D3
S31508002F800721A047C020A8470220A221A047022067
S31508002F900221A04702208421A047C120A847022079
S31508002FA0C521A047C220A84702200A21A04702201F
S31508002FB00021A047C320A84702208A21A047022053
S31508002FC02A21A047C420A84702208A21A047022018
S31508002FD0EE21A047C520A84702200E21A04736208B
S31508002FE0A8473068032810D8DFE800F00205080B68
S31508002FF00220C02107E00220002104E00220A021CF
S3150800300001E00220602101F0D3F8E020A847022061
S315080030100F21A04702201A21A04702200F21A0470E
S3150800302002201821A04702202F21A047022028218C
S31508003030A04702202021A04702202221A0470220E3
S315080030401F21A04702201B21A04702202321A047B9
S3150800305002203721A04702200021A047022007218D
S31508003060A04702200221A04702201021A047E12004
S31508003070A84702200F21A04702201B21A0470220B3
S315080030800F21A04702201721A04702203321A0477D
S3150800309002202C21A04702202921A04702202E2108
S315080030A0A04702203021A04702203021A047022055
S315080030B03921A04702203F21A04702200021A0472E
S315080030C002200721A04702200321A0470220102141
S315080030D0A0472A20A84702200021A0470220022153
S315080030E0A04702200021A04702208221A0472B20CA
S315080030F0A84702200021A04702200321A04702205A
S315080031000021A04702208321A047F020A8470220DB
S315080031100121A047F620A84702200021A0473A200F
S31508003120A84702200521A0472920A847FFF796F8B7
S3150800313009B0F0BD948C0008DC000020B53C0008FE
S31508003140E0000020A80100205D22000801270008F1
S31508003150BC00002040420F00AD340008653100086D
S31508003160B141000810B5104C0146E068026942F00A
S3150800317080020261426942F080024261426942F07D
S3150800318020024261022001F013F8E068016941F06B
S3150800319080010161016941F020010161416941F045
S315080031A08001416110BD00BFBC0000200149886054
S315080031B0704700BFAC01002010B5114CA068042868
S315080031C018BF03280AD120782044811C072001F063
S315080031D08FFD28B120780130207002E00228F2D055
S315080031E02078C0B2012802D1A178A52904D10328E4
S315080031F018BF10BD012060700020207010BD00BFF0
S31508003200AC01002080B523488068411E022916D3E8
S31508003210032826D0042818BF80BD032000F088F9AB
S3150800322003204FF4164100F061F9032000F06EF90F
S31508003230032000F07DF903204FF4164122E0032015
S3150800324000F076F903204FF4166100F04FF90320D9
S3150800325000F05CF9032000F06BF903204FF41661C7
S3150800326010E0032000F064F9032045F6200100F081
S315080032703DF9032000F04AF9032000F059F903202C
S3150800328045F6200100F032F90320BDE8804000F041
S315080032903DB900BFAC01002080B50D488068411ECD
S315080032A0022909D303280CD0042818BF80BD03209F
S315080032B000F03EF9074808E0032000F039F907480E
S315080032C003E0032000F034F903480121017080BDB2
S315080032D0AC01002011BA0020E86100200CBA0020D9
S315080032E001490860704700BF68BA002005480068B1
S315080032F0022804D0012818BF704700F0A5B8FEF7C9
S31508003300ADB800BF68BA002070B50C4D044600265B
S3150800331008E0642E84BF012070BD2846012100F014
S31508003320C5F801364D2000F07BFC0028F1D10520B8
S31508003330214601F0A7FC002070BD00BF40420F00E7
S31508003340F8B5174E0C46054612E0642F25D83046C8
S31508003350012100F0ABF801374D2000F061FC002890
S31508003360F3D1052029461E2201F096FC1E3C1E3587
S3150800337000271F2CF0D206E0642F0ED83046012114
S3150800338000F094F801374D2000F04AFC0028F3D1EC
S3150800339005202946224601F07FFC204601B0F0BDF3
S315080033A040420F00F8B5044603F0D4FD164E054614
S315080033B012E0642F25D83046012100F077F801374E
S315080033C04D2000F02DFC0028F3D1052021461E22B1
S315080033D001F062FC1E3D1E3400271F2DF0D206E0C8
S315080033E0642F0ED83046012100F060F801374D20D1
S315080033F000F016FC0028F3D1052021462A4601F0E4
S315080034004BFC284601B0F0BD40420F00B0B505465A
S3150800341004480C460421FFF793FF28462146BDE8D9
S31508003420B0408DE799000020E0B5034605480191B4
S3150800343001AA194600230430FDF7E3FA019802B001
S3150800344080BD00BFB801002010B5064C05202146F6
S3150800345001F04EFC201D21460122BDE81040FDF773
S315080034609BBA00BFB801002080B50120FFF738FFDE
S315080034700D494022081D1831FDF705FB4D20002196
S315080034800122092300F016FC05204FF4E13145F628
S31508003490460245F6470301F06DFC0520012101F0BF
S315080034A04FFC002080BD00BFB8010020F0B50D4AD2
S315080034B0DFF8ECCC0C4F00234FF47A7405250EE0A8
S315080034C013600139DCF80060B6FBF7F64643B6FB35
S315080034D0F4F65660936015601668F603FCD5002965
S315080034E0EED1F0BD10E000E040420F003C22064B52
S315080034F002EA900200F00F009A5800EB800002EBF7
S315080035008000C160704700BF508C00083C21074A04
S3150800351001EA900100F00F00515800EB800001EB22
S315080035208000816841F0010181607047508C000875
S315080035303C21074A01EA900100F00F00515800EBC0
S31508003540800001EB8000816821F0010181607047ED
S31508003550508C0008B0B5374CC0F3031C4FF4001E5E
S3150800356014280EFA0CFE656945EA0E05656125689C
S3150800357045EA0E052560256825EA0E0525602E4DC7
S3150800358000F00F0404EB840455F82C5005EB840571
S31508003590E9604BF282012A616B61A96088BFB0BD00
S315080035A0DFE800F00B10151A1F242947474747473D
S315080035B0474747472E33383D42000B20BDE8B04009
S315080035C0FDF770BE0C20BDE8B040FDF76BBE0D20C0
S315080035D0BDE8B040FDF766BE0E20BDE8B040FDF779
S315080035E061BE0F20BDE8B040FDF75CBE1020BDE807
S315080035F0B040FDF757BE1120BDE8B040FDF752BEFA
S315080036003820BDE8B040FDF74DBE3920BDE8B040D2
S31508003610FDF748BE3A20BDE8B040FDF743BE3B2063
S31508003620BDE8B040FDF73EBE3C20BDE8B040FDF722
S3150800363039BEB0BD14100240508C000810B50021E8
S31508003640072845D8DFE800F00408111B1F44442961
S315080036502048214C007802E01E48204C4078FF287C
S3150800366028D000F0DDFA216820E01A481B4C807843
S31508003670FF2824D000F0D4FAD4F8001416E0154830
S31508003680164CC0780CE01348144C0079FF2819D062
S3150800369000F0C6FAD4F8001C08E00E480E4CC079B3
S315080036A0FF2809D000F0BCFAD4F80018002808BF93
S315080036B049420DE0206807E0D4F8000804E0D4F891
S315080036C0000401E0D4F8000C00B2042190FBF1F1EB
S315080036D008B210BDB4000020242C0140240000408C
S315080036E0072888BF70470D4A02F59631DFE800F0D3
S315080036F0110406090C15150F11460AE002F580613A
S3150800370007E002F5006104E002F5406101E002F518
S315080037109A31086840F001000860704714000040BC
S3150800372070B50E4604211546044601F0D9F820491D
S315080037307A22FCF779FF204601F0E2F8F0B2C6F3E8
S3150800374003220021042300F0FDFAE8B2C5F30322A0
S315080037500021042300F0F6FA072C88BF70BD15492E
S3150800376001F59430DFE804F0110407090C23230F50
S315080037704FF0804009E0084607E001F5806004E064
S3150800378001F5006001E001F598304FF6FF7140F24F
S315080037900112C162002181628169114381618168D8
S315080037A041F003018160016841F00301016070BDC9
S315080037B0BA8C00080004004070B50E460421154670
S315080037C0044601F08DF82049AF22FCF72DFF20466C
S315080037D001F096F8F0B2C6F303220021042300F0A4
S315080037E0B1FAE8B200210022042300F063FA174870
S315080037F0072C055588BF70BD154901F59430DFE8DB
S3150800380004F0110407090C22220F4FF0804009E04A
S31508003810084607E001F5806004E001F5006001E074
S3150800382001F598304FF6FF71C16200218162816906
S3150800383041F001018161816841F0570181600168A9
S3150800384041F00301016070BDBA8C0008B400002085
S315080038500004004000F01F00012101FA00F00249AF
S315080038600A681043086070470004014000F01F0012
S31508003870012101FA00F003490A6822EA00000860FB
S31508003880704700BF00040140F8B50F460021012229
S31508003890092305460026012400F00CFA4B48016866
S315080038A041F4804101604A4905F01F0004FA00F21C
S315080038B0D1F8F8339343C1F8F8338308032B0AD8B1
S315080038C0DFE803F0020406080E6804E04E6802E02A
S315080038D08E6800E0CE6805F00304012C0AD0022C9D
S315080038E00ED0032C13D14FF4E04426F4704604EAB4
S315080038F0C51510E0702426F0F00604EA55050AE01E
S315080039004FF4E06426F4706604EAC50503E0C5F3DF
S31508003910421526F00F06032B0BD82E43DFE803F0DB
S31508003920020406080E6004E04E6002E08E6000E0C5
S31508003930CE60284B022F0BD0D643012F0CD0A7B947
S31508003940D1F800741743C1F800741F683E400BE0B5
S31508003950D1F80074174302E0D1F800743740C1F873
S3150800396000741F6847EA02061E60D1F8F83301287A
S3150800397042EA0302C1F8F82305D048B90620BDE893
S31508003980F840FDF78FBC0720BDE8F840FDF78ABC74
S31508003990022804D80820BDE8F840FDF783BC0328B0
S315080039A004D10920BDE8F840FDF77CBC042804D8FA
S315080039B00A20BDE8F840FDF775BC092894BF172012
S315080039C02820BDE8F840FDF76DBC00BF2C1002406A
S315080039D0080001400C0401400003002200EB81208E
S315080039E000F10061002092B2B0EB922F18BF704729
S315080039F08B5804320133F6D00120704781B040F667
S31508003A00FF721C4B00030092194A00EB812000F15B
S31508003A10006042F8083C184B42F8083C342313600F
S31508003A20536843F0020353609060506840F04000CA
S31508003A3050600098013800901068012802D100985B
S31508003A400028F6D1106810F0150F1CBF0020009052
S31508003A50002050603420106020201060506840F02C
S31508003A60800050600098B0FA80F0400901B07047B5
S31508003A700C20024023016745AB89EFCD000300EB1C
S31508003A80812000F1006002E002C8013B02C2002B5F
S31508003A90FAD170472DE9F8430746000340F6FF7947
S31508003AA0984614460E4600EB8120CDF8009000F1AA
S31508003AB000653846FFF790FF18B138463146FFF7DC
S31508003AC09DFF164816490160164901604FEA4801EC
S31508003AD0C2680B041BD042F001020139C26034F8F7
S31508003AE0022B2A80CDF80090009A013A009282684B
S31508003AF0012A02D1009A002AF6D1826812F0150F1F
S31508003B0003D1009A0235002AE2D1012003E042F0EF
S31508003B108001C160002001B0BDE8F08304200240A6
S31508003B2023016745AB89EFCD0003074A00EB8120E7
S31508003B30002100F10060B1F5806F08BF7047435857
S31508003B4053500431F7E700BF1C5D0020F8B5054661
S31508003B50000340F6FF760C4600EB8120009600F144
S31508003B6000672846FFF738FF18B128462146FFF7B1
S31508003B7045FF16481649184A0160164901604FF470
S31508003B800071C3680D041AD043F001030139C360FC
S31508003B9032F8023B3B800096009B013B009383680A
S31508003BA0012B02D1009B002BF6D1836813F0150F69
S31508003BB003D1009B0237002BE3D1012003E043F039
S31508003BC08001C160002001B0F0BD00BF04200240A2
S31508003BD023016745AB89EFCD1C5D002080B50348FE
S31508003BE04FF48061FF2203F08DF980BD1C5D002033
S31508003BF00A4B00294FF010024FEA501100F01F003F
S31508003C0008BF142253F82110012303FA00F051F8D3
S31508003C1002C040EA0C008850704700BFBC00002074
S31508003C2000F01F010122C0F3421002FA01F1044A12
S31508003C3052F820008068084018BF0120704700BF6E
S31508003C40BC00002000F01F010122C0F3421014231B
S31508003C5002FA01F1054A52F8200082680A4208BFB2
S31508003C601023C2581143C150704700BFBC00002042
S31508003C7002F00C026FF01F03114300F01F0203EB62
S31508003C808203082A38BF930001FA03FC0849C0F3E7
S31508003C904210082A4FF00F0202FA03F251F82000E8
S31508003CA028BF04300168914341EA0C01016070475E
S31508003CB0BC000020F0B5214DC0F3421C4FF0010EA8
S31508003CC0092B0EFA0CF42E6844EA06042C604FF011
S31508003CD014041B4D08BF1024002A4FEA501218BFBF
S31508003CE0102455F8226000F01F020EFA02F0072A87
S31508003CF0375940EA0700305155F82C0008D84FEAE2
S31508003D00820C0F22076A02FA0CF2174307620AE0CE
S31508003D106FF01F0707EB820C0F22476A02FA0CF2B4
S31508003D20174347620430076803F00C03194327EA70
S31508003D30020201FA0CF111430160F0BD281002409D
S31508003D40BC000020B0B51D4CC0F3421C4FF0010E5C
S31508003D5000F01F000EFA0CFE0728256845EA0E0536
S31508003D602560174D55F82CC00BD880000F25DCF8B8
S31508003D70204085408240AC432243CCF82020EA43C9
S31508003D800FE06FF01F05DCF8244005EB80000F25D7
S31508003D9085408240AC432243CCF82420EA430CF108
S31508003DA0040CDCF8005003F00C0319432A4001FA0E
S31508003DB000F01043CCF80000B0BD00BF2810024048
S31508003DC0BC000020072888BF7047DFE800F004061B
S31508003DD0090B13151D23134817E04FF0804014E014
S31508003DE0124812E01148D0F8001441F00101C0F859
S31508003DF0001470470D480EE00C48D0F8001C41F03E
S31508003E000101C0F8001C70470748016841F001012C
S31508003E10016070470348D0F8001841F00101C0F866
S31508003E2000187047002C01400014004000040040B0
S31508003E30072888BF7047DFE800F00406090B13154A
S31508003E401D23134817E04FF0804014E0124812E093
S31508003E501148D0F8001421F00101C0F80014704789
S31508003E600D480EE00C48D0F8001C21F00101C0F8FE
S31508003E70001C70470748016821F00101016070477E
S31508003E800348D0F8001821F00101C0F8001870475F
S31508003E90002C0140001400400004004070B50D4697
S31508003EA00121044600F01CFD264E4F223146FCF740
S31508003EB0BBFB284631465122002D18BF0120FCF7CE
S31508003EC0B3FB21480668204600F01AFD1F4800216A
S31508003ED0864288BF012125FA01F1072CC1F3CF30AC
S31508003EE088BF70BD421CB1FBF2F1194A02F5943540
S31508003EF0DFE804F0170407090C0F12154FF0804588
S31508003F000FE015460DE002F580650AE002F500654A
S31508003F1007E002F5406504E002F5805501E002F588
S31508003F20983589B2E962A862E86840F00100E8605D
S31508003F3008A050F82400FDF7B5F9286840F00100FC
S31508003F40286070BDE18C0008DC000020000E270701
S31508003F5000040040190000001C0000001D000000BD
S31508003F601E00000032000000360000003700000086
S31508003F702C0000002DE9F0410D4642F211718046F1
S31508003F80002021228D42284938BF0120FCF74CFB2E
S31508003F90C8F30341072944D8244800F59434DFE8D8
S31508003FA001F0110407090C40400F4FF0804409E066
S31508003FB0044607E000F5806404E000F5006401E0CB
S31508003FC000F59834E06A86B2304603F0BFFA074631
S31508003FD0284603F0C4FA164903F05AF8394603F09E
S31508003FE025F803F0F8FA08F47041B04208BF01302A
S31508003FF0A1F58051090B032988BFBDE8F081DFE8E8
S3150800400001F002060A0E80B26063BDE8F08180B254
S31508004010A063BDE8F08180B2E063BDE8F08180B2BC
S315080040202064BDE8F08100BF048D0008000400404C
S3150800403000401C462DE9F843C0F303450F460446E5
S3150800404003219046284600F04BFC544E5122314637
S31508004050FCF7EAFA42F211710020532288453146EC
S3150800406038BF0120FCF7E0FA4D484E4900688842FF
S3150800407005D34008B0FBF7F6F70BB94605E0B0FBE9
S31508004080F7F6C6F3CF374FEAD639284600F038FC9C
S31508004090E0B2C4F3032201211823FFF753FE781C6C
S315080040A0B6FBF0F087B2384603F050FA06464046AB
S315080040B003F055FA3C4902F0EBFF314602F0B6FF31
S315080040C003F089FA072D88BFBDE8F883374A02F559
S315080040D09431DFE805F0110407090C60600F4FF012
S315080040E0804109E0114607E002F5806104E002F527
S315080040F0006101E002F598311FFA89F2CF628A62FF
S3150800410080220A604FF400424A6404F47042A2F521
S315080041108052120B032A3AD8DFE802F002101E2C4E
S315080041208A6942F060028A618A6942F008028A61F5
S315080041300A6A42F001020A62486328E08A6942F480
S31508004140C0428A618A6942F400628A610A6A42F058
S3150800415010020A6288631AE0CA6942F06002CA61FC
S31508004160CA6942F00802CA610A6A42F480720A629F
S31508004170C8630CE0CA6942F4C042CA61CA6942F41B
S315080041800062CA610A6A42F480520A6208640868D0
S3150800419040F001000860BDE8F88300BF048D000800
S315080041A0DC000020010E270700401C4600040040E2
S315080041B0094A52F82000826A22F0010282620160EE
S315080041C08168C907FCD08168C904FCD4816A41F0BA
S315080041D001018162704700BF588C00080C4B53F8E8
S315080041E02000836A23F00103836206E00B78013A14
S315080041F003608368DB07FCD00131002AF6D18168A9
S31508004200C904FCD4816A41F001018162704700BF8C
S31508004210588C00080C4A52F82000826A22F00102E3
S3150800422082620A0A02608268D207FCD0C9B20160BB
S315080042308168C907FCD08168C904FCD4816A41F049
S3150800424001018162704700BF588C0008104B53F873
S315080042502000836A23F0010383620FE0B1F800C0EF
S31508004260013A4FEA1C2303608368DB07FCD05FFA38
S315080042708CF303608368DB07FCD00231002AEDD19A
S315080042808168C904FCD4816A41F0010181627047E2
S31508004290588C00080B4B53F82000836A23F001035F
S315080042A0836201608168C907FCD002608168C9071A
S315080042B0FCD08168C904FCD4816A41F0010181629D
S315080042C0704700BF588C0008DFF84CC05CF820C067
S315080042D0DCF8280020F00100CCF82800CCF8001003
S315080042E0DCF80800C007FBD008E01078013BCCF8E2
S315080042F00000DCF80800C007FBD00132002BF4D11F
S31508004300DCF80800C004FBD4DCF8280040F0010003
S31508004310CCF82800704700BF588C0008114B53F89A
S315080043202000836A23F0010383620B0A0360836813
S31508004330DB07FCD0C9B201608168C907FCD0110A45
S3150800434001608168C907FCD0D1B201608168C907DC
S31508004350FCD08168C904FCD4816A41F001018162FC
S31508004360704700BF588C0008DFF86CC05CF820C0A6
S31508004370DCF8280020F00100CCF82800080ACCF860
S315080043800000DCF80800C007FBD0C8B2CCF8000073
S31508004390DCF80800C007FBD010E01188013B080ACA
S315080043A0CCF80000DCF80800C007FBD0C8B2CCF88F
S315080043B00000DCF80800C007FBD00232002BECD165
S315080043C0DCF80800C004FBD4DCF8280040F0010043
S315080043D0CCF82800704700BF588C00080D4951F8E2
S315080043E02000816941F010018161816A21F0010193
S315080043F081620021016081688907FCD54168826A6B
S3150800440042F001028262826922F010028261C8B219
S31508004410704700BF588C0008104B4FF0000C53F83B
S315080044202000836943F010038361836A23F0010344
S31508004430836208E0013AC0F800C083689B07FCD590
S31508004440436801F8013B002AF4D1816A41F0010171
S315080044508162816921F0100181617047588C0008DA
S31508004460114951F82000816941F010018161816A82
S3150800447021F0010181620021016081688907FCD56C
S3150800448041680022026082689207FCD54268836A06
S3150800449043F001038362836923F01003836142EAD0
S315080044A0012080B2704700BF588C000880B5164BB3
S315080044B04FF0000C53F82000836943F01003836122
S315080044C0836A23F00103836213E0013AC0F800C04F
S315080044D083689B07FCD5D0F804E0A1F800E0C0F893
S315080044E000C083689B07FCD5436843EA0E2321F87E
S315080044F0023B002AE9D1816A41F0010181628169A2
S3150800450021F01001816180BD588C00080F4A52F8CD
S315080045102000826A22F00102826201608168C9076E
S31508004520FCD0816941F01001816100210160816838
S315080045308907FCD54168826A42F001028262826973
S3150800454022F010028261C8B2704700BF588C00087A
S31508004550DFF860C05CF820C0DCF8280020F0010015
S31508004560CCF82800CCF80010DCF80800C007FBD00F
S31508004570DCF81800002140F01000CCF818000AE01A
S31508004580013BCCF80010DCF808008007FBD5DCF806
S31508004590040002F8010B002BF2D1DCF8280040F0E9
S315080045A00100CCF82800DCF8180020F01000CCF840
S315080045B018007047588C0008164A52F82000826A7C
S315080045C022F0010282620A0A02608268D207FCD0DF
S315080045D0C9B201608168C907FCD0816941F0100140
S315080045E081610021016081688907FCD54168002244
S315080045F0026082689207FCD54268836A43F0010329
S315080046008362836923F01003836142EA012080B242
S31508004610704700BF588C000880B5DFF88CC05CF87E
S3150800462020E0DEF8280020F00100CEF82800080A6D
S31508004630CEF80000DEF80800C007FBD0C8B2CEF8F6
S315080046400000DEF80800C007FBD0DEF818004FF0BF
S31508004650000C40F01000CEF8180015E0013BCEF82B
S3150800466000C0DEF808008007FBD5DEF804101180CC
S31508004670CEF800C0DEF808008007FBD5DEF8040097
S3150800468040EA012022F8020B002BE7D1DEF82800C9
S3150800469040F00100CEF82800DEF8180020F01000DF
S315080046A0CEF8180080BD00BF588C0008DFF870C02F
S315080046B05CF820C0DCF8180040F01000CCF81800B0
S315080046C0DCF8280020F00100CCF8280014E011F8E6
S315080046D0010B013B002ACCF8000008D0DCF80800E2
S315080046E08007FBD5DCF8040002F8010B04E0DCF8CF
S315080046F00800C007FBD00022002BE8D1DCF8080030
S31508004700C004FBD4DCF8280040F00100CCF82800EF
S31508004710DCF8180020F01000CCF81800704700BF2D
S31508004720588C000880B5DFF8A8C05CF820E0DEF8F1
S31508004730180040F01000CEF81800DEF8280020F027
S315080047400100CEF8280030E0B1F800C0002A4FEA90
S315080047501C20CEF800000AD0DEF808008007FBD53A
S31508004760DEF80400C0B2108091F800C003E0DEF85D
S315080047700800C007FBD05FFA8CF0013B002ACEF890
S3150800478000000CD0DEF808008007FBD5B2F800C0A0
S31508004790DEF80400C0B240EA0C20108003E0DEF820
S315080047A00800C007FBD002320231002BCCD1DEF85C
S315080047B00800C004FBD4DEF8280040F00100CEF85B
S315080047C02800DEF8180020F01000CEF8180080BD8A
S315080047D0588C00082DE9F04190460D460646D8B299
S315080047E0C3F3032201211823FFF7ACFA069918230D
S315080047F0C8B2C1F303220121FFF7A4FADDE90717BE
S315080048004FF6FF74A14206D0C8B2C1F303220021B5
S315080048100423FFF797FAA74206D0F8B2C7F3032294
S3150800482001211823FFF78EFA2B4846B14168012E5D
S3150800483014BF41F4004141F48041416003E001683E
S3150800484041F4805101602548012D50F82600816900
S3150800485041F004018161C16941F00801C1610DD0CF
S31508004860022D11D0C169032D21F00301C161C1696F
S315080048700CBF41F0020141F001010CE0C16921F0D1
S315080048800301C161C16906E0C16921F00301C16183
S31508004890C16941F00301C161C24A0023C16941F0FF
S315080048A01001C161BE490968914288BF0123D940F8
S315080048B0B1FBF8F10162C16921F00401C1618169A6
S315080048C041F008018161816941F0010181618168D6
S315080048D0C904FCD4BDE8F0812C100240588C0008AD
S315080048E0064A52F82030002B07BF42F82010012054
S315080048F0581AB0FA80F018BF400970471002002015
S31508004900072888BF7047DFE800F0040A10161C2243
S31508004910282E194850F8041C41F0010128E01648D1
S31508004920016841F00101016070471348016841F0D0
S315080049300201016070471048016841F004010160F6
S3150800494070470D48016841F00801016070470A4840
S31508004950016841F01001016070470748016841F09D
S31508004960200101607047044850F8041C41F0020118
S3150800497040F8041C704700BF30100240072888BF63
S315080049807047104A02F59431DFE800F0170407096A
S315080049900C0F12154FF080410FE011460DE002F59D
S315080049A080610AE002F5006107E002F5406104E073
S315080049B002F5805101E002F59831086840F00100DF
S315080049C00860704700040040072888BF7047104AEF
S315080049D002F59431DFE800F0170407090C0F1215E9
S315080049E04FF080410FE011460DE002F580610AE0C4
S315080049F002F5006107E002F5406104E002F5805126
S31508004A0001E002F59831086820F001000860704757
S31508004A100004004007280BD8144A02F59431DFE851
S31508004A2000F01904090B0E1114174FF0804111E01C
S31508004A30002018E011460DE002F580610AE002F553
S31508004A40006107E002F5406104E002F5805101E0EB
S31508004A5002F59831064A02EB8000026A486A022A81
S31508004A6008BFC0F34E0080B2704700BF0004004084
S31508004A7010020020072888BF7047104A02F59631B1
S31508004A80DFE800F0170406090C0F1215114610E0AE
S31508004A9002F580610DE002F500610AE002F5406169
S31508004AA007E002F5805104E002F5A05101E002F5A5
S31508004AB09A31086840F00100086070471400004009
S31508004AC070B5344E05460C4656F8200020B101381C
S31508004AD0B0FA80F0400902E0012046F825002E4988
S31508004AE0CC22FBF7A1FD012046F825002846FFF752
S31508004AF007FF072D88BF70BD284901F59430DFE808
S31508004B0005F0170407090C0F12154FF080400FE047
S31508004B1008460DE001F580600AE001F5006007E04F
S31508004B2001F5406004E001F5805001E001F5983098
S31508004B3006EB8501022C0C620ED0012C1ED1C16A2F
S31508004B404FF6FF721143174AC16215490968914227
S31508004B5094BF154A154A0DE0C16A4FF6FF72114314
S31508004B60104AC1620E49096891428CBF4FF47A62B5
S31508004B704FF4FA62B1FBF2F1013905E0C16A4FF66A
S31508004B80FF721143C16200218162416941F001014E
S31508004B90416170BD10020020278D00080004004006
S31508004BA0DC000020000E270740420F0080841E000C
S31508004BB0F8B50546C0F303362F480C4650F82610BC
S31508004BC021B1481FB0FA80F0400903E0052140F8FA
S31508004BD026100120294940F20B12FBF725FD304625
S31508004BE0FFF78EFE072E88BFF8BD254800F59437D7
S31508004BF0DFE806F0170407090C0F12154FF0804777
S31508004C000FE007460DE000F580670AE000F500674B
S31508004C1007E000F5406704E000F5805701E000F57D
S31508004C209837E8B2C5F30322002104230025FFF7CD
S31508004C3089F8F86A4FF6FF71012C40EA01004FF631
S31508004C407771F862BD62786940F001007861B868EA
S31508004C5020EA010000F17400B86002BFB86840F4A9
S31508004C600040B860F86840F48040F860386840F062
S31508004C7001003860F8BD00BF10020020278D00082B
S31508004C8000040040034A52F8200001608168C90701
S31508004C90FCD07047108C000880B5DFF820C00AE009
S31508004CA05CF820E00B78CEF80030DEF80830DB0739
S31508004CB0FBD0013A0131002AF2D180BD108C0008E0
S31508004CC0B0B50C46054603E02846FFF7DBFF01347E
S31508004CD021780029F8D1B0BD044951F8200081682F
S31508004CE08907FCD54068C0B2704700BF108C000821
S31508004CF0054A52F820008268920751BF0020406892
S31508004D0008700120704700BF108C00080A4A002965
S31508004D1052F82020136907D043F0010111610749B1
S31508004D2051F82000FCF7BEBA23F0010111610349CE
S31508004D3051F82000FCF7C4BA108C0008308C000823
S31508004D400A4A002952F82020136907D043F00201C5
S31508004D501161074951F82000FCF7A4BA23F00201B3
S31508004D601161034951F82000FCF7AABA108C000813
S31508004D70308C000870B51E460D460446D0B2C2F304
S31508004D80032201211823FEF7DDFFF0B2C6F3032242
S31508004D90002104230026FEF7D5FF072C00F27680B3
S31508004DA0DFE804F00414212E3B485A674448016999
S31508004DB041F01001016150F8041C41F0100140F85F
S31508004DC0041C50F8041C21F0100142E03C484169DB
S31508004DD041F400314161016841F400310160016824
S31508004DE021F4003151E03648416941F4802141619E
S31508004DF0016841F480210160016821F4802144E0C2
S31508004E002F48416941F400214161016841F40021BC
S31508004E100160016821F4002137E02948416941F41D
S31508004E2080114161016841F480110160016821F433
S31508004E3080112AE02248016941F02001016150F8F9
S31508004E40041C41F0200140F8041C50F8041C21F011
S31508004E50200140F8041C19E01948416941F08041D5
S31508004E604161016841F080410160016821F080419B
S31508004E700BE01348416941F000414161016841F086
S31508004E8000410160016821F0004101600D480E49AA
S31508004E900E4A006852F82420884288BF0126F0404E
S31508004EA0B0FBF5F0010900F00F0011625062D069FD
S31508004EB040F03000D061906940F01900906170BDF3
S31508004EC01C100240DC000020000E2707108C00088A
S31508004ED00148FBF79FBA00BF00D8B8052DE9F8438B
S31508004EE03B4DDFF8F080322140F2EE222846C047DB
S31508004EF0DFF8EC9038A200201021C847394C3A4E0A
S31508004F00C8212046B047394F284640F22531B847D0
S31508004F102046C821B04736A200201021C847284697
S31508004F2040F2B621B8472046C821B047284640F285
S31508004F30EE21B8472046C821B04730A200201021EC
S31508004F40C847314842F210710022C0472F4842F242
S31508004F5010710022C0470120012101221023FEF70B
S31508004F60A9FE0320012101221023FEF7A3FE022039
S31508004F7041F2242142F22522FEF71EFC032041F2CB
S31508004F80262142F22722FEF717FC20463221B04797
S31508004F901FA200201021C847204C214D04F12000F3
S31508004FA0A84704F13800A84704F15000A8471DA2F5
S31508004FB000201021C84737200121FCF793F91CA2CD
S31508004FC0002010214B4601B0BDE8F043184700BF4A
S31508004FD00F110100354000086D6F746F723A20009A
S31508004FE00127000840420F00AD340008753F00084D
S31508004FF06D6F746F723A203D000000006D6F746F1C
S31508005000723A203D3D0000000012040002320400FE
S315080050106D6F746F723A203D3D3D00001403002009
S31508005020D16200086D6F746F723A203D3D3D3D00B8
S315080050306D6F746F723A203D3D3D3D205B646F6E27
S31508005040655D000010B50220FEF7F8FA0D4CE08009
S315080050500220FEF745FB0320FEF7F0FA2081032025
S31508005060FEF73EFBB4F90600B4F90810002800D58F
S315080050704042002900D549420844616901EB5000C5
S31508005080606110BD1403002010B56E20FEF7C8FD40
S3150800509004466F20FEF7C4FD6CB1012C24D101280B
S315080050A022D1124842F6244141F6844241F6C223EF
S315080050B041F62C2414E050B1012818BF10BD0B4846
S315080050C042F6942141F6BC3241F69C0306E00748B5
S315080050D042F6942141F6BC3241F6C81341F61E1435
S315080050E0C0E90043C0E9022110BD00BF74000020DA
S315080050F00021DFF828C001284FF00F0308BF55210B
S31508005100002808BF5721DBB2AD2B24BF10B2704769
S315080051103CF813000A440A33121AF4E7A45B002089
S31508005120F8B53F4C3F4D6078042824D1484868615B
S3150800513048488078012807D16FF00C0040F2A52175
S3150800514028603B48FEF716FF28680D3060D1608955
S3150800515040F2752188420BD940F2B121884258D8CD
S31508005160002040F2EE2160613148FEF703FF6089B6
S3150800517001306081F8BD2C490228696108BFFFF734
S3150800518061FF606900097C284FF06C008CBF002124
S315080051900121FEF72DFD254960690A68904220D253
S315080051A0286802F0D3F902F062FA254B002202F0D1
S315080051B0C6F8244B002201F0A9FF234B002202F077
S315080051C04CF802F067FA02F052FA204B002202F07D
S315080051D0B6F802F033FA01461548BDE8F840FEF77E
S315080051E0C9BE4968884298BFF8BD1148114F0026C4
S315080051F040F2EE2166612E60B8470F484FF496617B
S315080052006E61B8470D484FF49661B8470320607041
S31508005210F8BD114868610520607000202860F8BD57
S3150800522014030020540000200000F0C17400002080
S315080052300F110100753F0008001204000232040035
S31508005240008056400000F83F0088C3400000344004
S315080052500000B0410DBA0020666652422DE9F041C1
S31508005260484D494C494EA87805281BD10E2040F2D6
S315080052703B3170604F4870612046FEF77BFEA88977
S31508005280C7280BD94008AE2853D86FF00D004FF445
S31508005290287170602046FEF76DFEA8890130A88146
S315080052A0BDE8F0813A4900F0FE000228716108BFA6
S315080052B0FFF7C8FE686941F6573188424FF06C001F
S315080052C08CBF00210121FEF793FC324968698A6880
S315080052D0904220D2706802F039F902F0C8F9314BD1
S315080052E0002202F02CF8304B002201F00FFF2F4B62
S315080052F0002201F0B2FF02F0CDF902F0B8F92C4B0A
S31508005300002202F01CF802F099F901462046BDE891
S31508005310F041FEF72FBEC968884216D20D2040F22A
S31508005320363170600320A8702046BDE8F041FEF7CC
S3150800533021BE00200621706169707060204640F227
S31508005340EE21BDE8F041FEF715BE134F4FF00008F9
S31508005350204640F2EE21C6F80480B8470F4841F6C9
S315080053604C51C6F81480B8470D4841F64C51B84719
S315080053700420C5F814800121A8706C20BDE8F0410E
S31508005380FEF736BC140300200F110100540000205C
S315080053909A9999BE74000020753F0008001204000F
S315080053A002320400008056400000F83F0088C340DF
S315080053B00000344000000C42B0B5204C6578681EE9
S315080053C0032802D8BDE8B040AAE6A07810B1BDE827
S315080053D0B04043E7052D00D07DBB1948006802F0B0
S315080053E0E1F84238082806D8207930B9E078013043
S315080053F0E070012000E000202071052D11D0E5B9EC
S3150800540000200025FFF774FE02F0A0F800F01CF853
S31508005410E078042811D10B48456101206070E570D9
S31508005420B0BD01200125FFF763FE02F08FF800F0FA
S315080054300BF8E078032808BF6580B0BD1403002088
S3150800544014BA002054000020B0B50446084800F1FC
S315080054505005284600F03CFF06492846224601F03A
S3150800546009F800F2EE210448BDE8B040FEF782BD17
S3150800547014030020A00000200F1101002DE9F041BF
S31508005480654F664D664C387801281AD1654E00205E
S315080054907061B7F90E0002F059F80836024607F1AE
S315080054A02000314600F0E6FFB861B7F9100002F0B7
S315080054B04DF8024607F13800314600F0DBFFF86187
S315080054C00DE07978012902D0B87801282ED128462E
S315080054D00021FEF74FFD20460021FEF74BFDB96976
S315080054E0002905DB2846FEF745FD0120002105E0D9
S315080054F049422846FEF73EFD01200121FEF778FBCA
S31508005500F969002908DB2046FEF734FD032000214F
S31508005510BDE8F041FEF76CBB49422046FEF72AFD7E
S3150800552003200121BDE8F041FEF762BB022918BF3E
S3150800553002281DD1B7F90E0002F008F839490246CB
S3150800554007F1200001F10806314600F093FFB86123
S31508005550B7F9100001F0FAFF024607F138003146A4
S3150800556000F088FFB430F861B869A0F1B4011EE014
S3150800557003281ED1B7F90E0001F0E8FF29490246B3
S3150800558007F1200001F10806314600F0D7FEB861A0
S31508005590B7F9100001F0DAFF024607F13800314684
S315080055A000F0CCFEB438F861B86900F1B401B9610D
S315080055B096E70220FEF742F8F8810220FEF790F8F7
S315080055C00320FEF73BF8404238820320FEF788F8AE
S315080055D0B7F90E0001F0BAFF1249024607F120009A
S315080055E001F10806314600F045FFB861B7F9100029
S315080055F001F0ACFF024607F13800314600F03AFFE9
S315080056008046786EBE6901F0CDFF3118A8EB000020
S31508005610C7E9061064E700BF14030020001204005F
S31508005620023204005400002010B504468069FEF7D3
S31508005630F7FAB0FA80F04009A070607010BD7047A4
S315080056407047704710B5044600200923A0622270EF
S31508005650C4E9061020626060084600210122FEF7B0
S3150800566029FB0448016800291ABF4168CC61046017
S31508005670446010BD500200202DE9F84F3748002538
S3150800568001264FF0050A4FF002084FF006090427D5
S315080056904FF0030B5BE02046FFF7C6FF607828B99A
S315080056A0A16A41F00401052918BF2562A1780142C3
S315080056B003D02178226A11442162A16A41F00102CD
S315080056C0032A11BF0022227863681A4462600629F9
S315080056D03BD8DFE801F00409161A252D3200002808
S315080056E0656232D0A66230E0216AC92928BFC4F8AB
S315080056F028A050BBA1F11500B22825D8C4F82880E7
S315080057000AE0952A03D9A7621FE0952A19D8206AC4
S3150800571015281AD3C4F82890606A0130606214E02C
S315080057202046FFF78CFF6078002808BFA5620CE0CA
S3150800573058B92046FFF784FF06E030B9C4F828B008
